S01600004D6178695F446963655F56312E302E7372656367
S11300000C9452010C94D4010C946F010C946F0164
S11300100C946F010C946F010C946F010C94BD014E
S11300200C946F010C946F010C9471010C946F018A
S11300300C946F010C946F010C946F010C946F017C
S11300400C946F010C946F010C946F010C946F016C
S11300500C946F0198019A019C019E01A001A201D8
S1130060A401A6010000000000000000FFFFFFFF44
S1130070FFFFFFFFC39999999999C3FFE7C7E7E782
S1130080E7E7E7FFC399F9F3E7CF81FFC399F9E302
S1130090F999C3FFF3E3C39381F3F3FF819F83F9DA
S11300A0F999C3FFE3CF9F839999C3FF81F9F9F3CA
S11300B0E7E7E7FFC39999C39999C3FFC39999C126
S11300C0F9F3C7FFE7DBDBDBDBC3DBDB87BBBBBBF6
S11300D087BBBB87C3993F3F3F99C3FF87939999D8
S11300E0999387FF819F9F879F9F81FF819F9F8710
S11300F09F9F9FFFC3993F3F3199C1FF9999998170
S1130100999999FFE7E7E7E7E7E7E7FFF9F9F9F9ED
S11301109999C3FF99999387939999FF9F9F9F9F5B
S11301209F9F818139110101293939FF3919092129
S1130130313939FFC39999999999C3FF839999835F
S11301409F9F9FFFC399999991C3F1FF83999983C5
S1130150939999FFC3998FC7F199C3FF81E7E7E7A3
S1130160E7E7E7FF999999999999C1FF999999991D
S113017099C3E7FF39393929011139FF9999C3E73F
S1130180C39999FF999999C3E7E7E7FF01F9F3E761
S1130190CF9F01FFFFFFC3F9C199C5FF9F9F9F83B5
S11301A09999A3FFFFFFC3999F99C3FFF9F9F9C177
S11301B09999C5FFFFFFC399819FC3FFE3C9CF8707
S11301C0CFCFCFFFFFFFC59999C1F9C39F9F9389F3
S11301D0999999FFC3FFC3C3C3C3C3FFF3FFF3F3E9
S11301E0F33333879F9F9993879399FFE7E7E7E773
S11301F0E7E7E7FFFFFF3911012939FFFFFF839983
S1130200999999FFFFFFC3999999C3FFFFFFA39998
S113021099839F9FFFFFC59999C1F9F9FFFFA389AE
S11302209F9F9FFFFFFFC19FC3F983FFCFCF83CF62
S1130230CFCBE7FFFFFF99999999C5FFFFFF9999E4
S113024099C3E7FFFFFF3929010193FFFFFF3993AA
S1130250C79339FFFFFF999999C1F9C3FFFF81F350
S1130260E7CF81FF817E5A7E42667E81FFE7C3DB52
S1130270DBDBDBC3FFE7C3DBDBDBC3C3FFE7C3DBE2
S1130280DBC3C3C3FFE7C3DBC3C3C3C3FFE7C3C34A
S1130290C3C3C3C3FFFFFFE7E7FFFFFFFCF8F1E3BE
S11302A0C78F1F3F11241FBECFE5D8E0DEBFCDBFEF
S11302B010E0A0E6B0E0E8E8F5E002C005900D9299
S11302C0A239B107D9F720E0A2E9B0E001C01D923C
S11302D0A53BB207E1F70E9493020C94C2020C946E
S11302E000001F920F920FB60F9211248F939F93C9
S11302F0AF93BF93EF93FF9385B3877085BB88B3A8
S1130300887F88BBE0919200F0E0EE0FFF1FEB5670
S1130310FF4F808180958BBBE09192008E2F90E0FF
S113032088309105A0F4FC01E65DFF4F0C94BC02FB
S1130330AB9A0DC0AC9A0BC0AD9A09C0AE9A07C077
S1130340AF9A05C0C29A03C0C19A01C0C09A8091F5
S113035092008F5F8093920080919200883010F019
S113036010929200FF91EF91BF91AF919F918F9165
S11303700F900FBE0F901F9018951F920F920FB6FB
S11303800F9211248F939F938091930090919400E6
S1130390019690939400809393009F918F910F9076
S11303A00FBE0F901F9018951F920F920FB60F92C9
S11303B0112410929400109293000F900FBE0F908E
S11303C01F90189590ED980F9A3010F48E5208955E
S11303D09FEB980F9A3110F4855308959FE9980F75
S11303E09A3110F48B5308958E3219F020F0885E00
S11303F0089586E4089581E008957F928F929F92F4
S1130400AF92BF92CF92DF92EF92FF920F931F931E
S1130410CF93DF93FC0101900020E9F731974F015E
S1130420881A990A880C991C880C991C880C991CA8
S11304308114910409F469C05C0100E010E0C5EB8B
S1130440D0E06894EE24E3F8F12C6801D694C794C4
S1130450D694C794D694C794F501EC0DF11D808110
S11304600E94E201D82EC394F501EC0DF11D8081A8
S11304700E94E20190E09C01220F331F220F331FE0
S1130480220F331F2C593F4FA5E9B0E04D2D50E00A
S1130490481B590B440F551F440F551F440F551F3C
S11304A0B801677077276701C61AD70AF901E40F04
S11304B0F51F7490F901849190E00C2C02C095957D
S11304C087950A94E2F7E72DF0E0062E02C0EE0FBE
S11304D0FF1F0A94E2F78E2B9F2B809590958D93A6
S11304E09D932F5F3F4FAC17BD0701F7FFEF27EE3A
S11304F083E0F15020408040E1F700C000000F5F2E
S11305001F4F8016910609F0A0CFDF91CF911F9164
S11305100F91FF90EF90DF90CF90BF90AF909F909E
S11305208F907F9008958AB38FEF8ABB87B38F6EC5
S113053087BB84B38C6F84BB83B78B6483BF89B759
S1130540826089BF8EB585608EBD8EB588608EBD94
S11305508DE490E09BBD8ABD89B7806189BF8BB76C
S113056080648BBFAA9A78948BB78F7B8BBF80E60D
S113057090E00E94FD01FBCFEE0FFF1F0590F49168
S10B0580E02D0994F894FFCF6B
S113058848616C6C6F002054455354204D4F4445CA
S11305982000207777772E68657363682E6465205A
S11305A80020536C656570002057616B6520557099
S10505B800003D
S9030000FC
