:100000000C94DE010C9461020C94FB010C94FB0136
:100010000C94FB010C94FB010C94FB010C944A0220
:100020000C94FB010C94FB010C94FD010C94FB015E
:100030000C94FB010C94FB010C94FB010C94FB0150
:100040000C94FB010C94FB010C94FB010C94FB0140
:100050000C94FB012402260228022A022C022E0202
:1000600030023202FFFFFFE7E7FFFFFFFCFCFFFF6C
:10007000FFFF3F3FFCFCFFE7E7FF3F3F3C3CFFFF4C
:10008000FFFF3C3C3C3CFFE7E7FF3C3C9999FF9974
:1000900099FF99990000000000000000FFFFFD801B
:1000A00080FFFFFFFFBD9C8EA6B0B9FFFFDD9CB6B1
:1000B000B680C9FFFFE7E3E98080EFFFFFD898BA79
:1000C000BA82C6FFFFC381B4B686CFFF000000002E
:1000D00000000000FFFFFF0101BFFFFFFF9D0D6D4E
:1000E0006531B9FFFF93016D6D39BBFFFFF701016A
:1000F00097C7E7FFFF63415D5D191BFFFFF3616D6C
:100100002D81C3FF0000000000000000FFE7E7E7CB
:10011000E7E7E3E7FF81F3E7CF9F99C3FFC3999F29
:10012000C79F99C3FFCFCF81C9C3C7CFFFC3999FD3
:100130009FC1F981FFC39999C1F9F3C7000000007D
:1001400000000000E7C7E7E7E7E7E7FFC399F9F337
:10015000E7CF81FFC399F9E3F999C3FFF3E3C393B1
:1001600081F3F3FF819F83F9F999C3FFE3CF9F8365
:100170009999C3FF0000000000000000000000008B
:1001800000000000FFFFFFFFFFFFFFFFC3999999E9
:100190009999C3FFE7C7E7E7E7E7E7FFC399F9F3F3
:1001A000E7CF81FFC399F9E3F999C3FFF3E3C39361
:1001B00081F3F3FF819F83F9F999C3FFE3CF9F8315
:1001C0009999C3FF81F9F9F3E7E7E7FFC39999C369
:1001D0009999C3FFC39999C1F9F3C7FFE7DBDBDB4B
:1001E000DBC3DBDB87BBBBBB87BBBB87C3993F3FA5
:1001F0003F99C3FF87939999999387FF819F9F8721
:100200009F9F81FF819F9F879F9F9FFFC3993F3F34
:100210003199C1FF99999981999999FFE7E7E7E7A2
:10022000E7E7E7FFF9F9F9F99999C3FF99999387F6
:10023000939999FF9F9F9F9F9F9F818139110101F2
:10024000293939FF39190921313939FFC399999968
:100250009999C3FF839999839F9F9FFFC399999908
:1002600091C3F1FF83999983939999FFC3998FC79C
:10027000F199C3FF81E7E7E7E7E7E7FF99999999E4
:100280009999C1FF9999999999C3E7FF3939392902
:10029000011139FF9999C3E7C39999FF999999C3B6
:1002A000E7E7E7FF01F9F3E7CF9F01FFFFFFC3F99E
:1002B000C199C5FF9F9F9F839999A3FFFFFFC39992
:1002C0009F99C3FFF9F9F9C19999C5FFFFFFC39938
:1002D000819FC3FFE3C9CF87CFCFCFFFFFFFC59972
:1002E00099C1F9C39F9F9389999999FFC3FFC3C38C
:1002F000C3C3C3FFF3FFF3F3F33333879F9F999394
:10030000879399FFE7E7E7E7E7E7E7FFFFFF3911A3
:10031000012939FFFFFF8399999999FFFFFFC3993D
:100320009999C3FFFFFFA39999839F9FFFFFC599E9
:1003300099C1F9F9FFFFA3899F9F9FFFFFFFC19F0D
:10034000C3F983FFCFCF83CFCFCBE7FFFFFF9999CF
:100350009999C5FFFFFF999999C3E7FFFFFF3929D5
:10036000010193FFFFFF3993C79339FFFFFF99996D
:1003700099C1F9C3FFFF81F3E7CF81FF817E5A7EE8
:1003800042667E81FFE7C3DBDBDBDBC3FFE7C3DB6A
:10039000DBDBC3C3FFE7C3DBDBC3C3C3FFE7C3DBF5
:1003A000C3C3C3C3FFE7C3C3C3C3C3C3FFFFFFFFCD
:1003B000FFFFFEFFFCF8F1E3C78F1F3F11241FBEB4
:1003C000CFE5D8E0DEBFCDBF10E0A0E6B0E0E4E9C5
:1003D000F0E102C005900D92AE3BB107D9F720E0E5
:1003E000AEEBB0E001C01D92A33EB207E1F70E9460
:1003F000E9060C9448080C9400001F920F920FB667
:100400000F9211248F939F93AF93BF93EF93FF931A
:10041000F89485B3877085BB88B3887F88BBE091EB
:10042000BE00F0E0EE0FFF1FEE53FF4F808180957E
:100430008BBB8091BE0090E088309105A0F4FC0158
:10044000E65DFF4F0C946D07AB9A0DC0AC9A0BC0E4
:10045000AD9A09C0AE9A07C0AF9A05C0C29A03C050
:10046000C19A01C0C09A8091BE008F5F8093BE0088
:100470008091BE00883010F01092BE007894FF91F9
:10048000EF91BF91AF919F918F910F900FBE0F9001
:100490001F9018951F920F920FB60F9211248F93F1
:1004A0009F938091BF009091C00001969093C000EF
:1004B0008093BF009F918F910F900FBE0F901F9060
:1004C00018951F920F920FB60F9211248F939F933E
:1004D0001092C0001092BF00AA988FE99FE0019788
:1004E000F1F700C00000AA9A9F918F910F900FBE64
:1004F0000F901F901895E2ECF0E082ED90E01192E1
:100500001192E817F907D9F70895CF93DF93B49BB9
:1005100027C081E08093C10044E853E0CCEAD3E0F7
:1005200062EC70E022ED30E018C0849190E080959C
:1005300090958D939D933196A217B307B1F78FEFE6
:1005400099E6E8E181509040E040E1F700C000000A
:10055000485F5F4F4C175D0729F0DB01FA01E5CFDB
:100560001092C100DF91CF91089590ED980F9A30CD
:1005700010F48E5208959FEB980F9A3110F4855322
:1005800008959FE9980F9A3110F48B5308958E3295
:1005900019F020F0885E089586E4089581E00895BA
:1005A0000E947B02879B22C00895849190E08095F1
:1005B00090958D939D933196A217B307B1F70E9442
:1005C00085022FEF89E698E1215080409040E1F7C5
:1005D00000C000000E947B022FEF89E698E12150C5
:1005E00080409040E1F700C000000895E4E8F3E0A7
:1005F000A2ECB0E022ED30E0D8CFEF92FF920F9363
:100600001F93CF93DF937C01EB01F894FB010190E2
:100610000020E9F73197E61BF70BEE0FFF1FEE0FF7
:10062000FF1FEE0FFF1F8E179F0708F057C00E9495
:100630007B028701169507951695079516950795E0
:10064000FE01E00FF11D80810E94B502182F0F5F9F
:10065000C00FD11D88810E94B502412F50E09A0140
:10066000220F331F220F331F220F331F24583E4FF8
:10067000A2ECB0E002EE10E0C82FD0E0C41BD50B16
:10068000CC0FDD1FCC0FDD1FCC0FDD1FC701877026
:10069000992768E070E0681B790BF901E490F90193
:1006A000EC0FFD1F4491F12C082E02C0EE0CFF1C34
:1006B0000A94E2F750E0062E02C0559547950A9439
:1006C000E2F74E295F294095509555274D935D934C
:1006D0002F5F3F4FA017B10701F70BC0E2ECF0E02E
:1006E00022ED30E08FEF90E081939193E217F307D2
:1006F000D9F77894DF91CF911F910F91FF90EF90F0
:100700000895EF92FF920F931F93CF93DF93CDB78E
:10071000DEB762970FB6F894DEBF0FBECDBF82E1A1
:10072000E4E6F0E0DE01119601900D928A95E1F782
:1007300000E010E0CE0101967C010FC0B701C801B6
:100740000E94FD029FEF20E782E091502040804010
:10075000E1F700C000000F5F1F4FF701019000207C
:10076000E9F73197EE19FF09EE0FFF1FEE0FFF1F9C
:10077000EE0FFF1F0E171F0708F362960FB6F894CF
:10078000DEBF0FBECDBFDF91CF911F910F91FF90C4
:10079000EF900895EF92FF920F931F93CF93DF9303
:1007A000CDB7DEB769970FB6F894DEBF0FBECDBFE9
:1007B00085B78F78806285BFF8948091BF00909153
:1007C000C000803E9E4208F467C0F8948BB78064F6
:1007D0008BBF1092C0001092BF00AA988FE79EE3D3
:1007E0000197F1F700C00000AA9A89E1E6E7F0E07E
:1007F000DE01119601900D928A95E1F700E010E07C
:10080000CE0101967C010FC0B701C8010E94FD0214
:100810009FEF20E782E0915020408040E1F700C048
:1008200000000F5F1F4FF70101900020E9F731979B
:10083000EE19FF09EE0FFF1FEE0FFF1FEE0FFF1F58
:100840000E171F0708F389B78D7F89BF8AB31ABABD
:1008500087B3807187BB84B3837084BB0E947B02A3
:1008600085B7806885BF7894889585B78F7785BF71
:100870008BB78F7B8BBF8AEF8150F1F789B782608E
:1008800089BF8AB38FEF8ABB87B38F6E87BB84B370
:100890008C6F84BB0E948103789469960FB6F8949C
:1008A000DEBF0FBECDBFDF91CF911F910F91FF90A3
:1008B000EF900895DF92EF92FF920F931F93CF93E3
:1008C000DF930F2EFFE0FF2EF02D06E010E0C2ECCC
:1008D000D0E0D12CE12C0E94D507B8010E94590725
:1008E000DE012D2D3E2DAC015527440F551F440F21
:1008F000551F440F551FFA01E20FF31FEC59FF4F2C
:10090000E491F0E0E095F095ED93FD932F5F3F4F7C
:100910002830310581F72FEF31EE44E0215030408F
:100920004040E1F700C00000FA94A9F6DF91CF91B2
:100930001F910F91FF90EF90DF9008956F927F923B
:100940008F929F92AF92BF92CF92DF92EF92FF92DF
:100950000F931F93CF93DF93EA0189018230C1F196
:1009600020F4813009F44BC054C18330D1F084307D
:1009700009F04FC1A62EB12CA114B10409F449C14C
:10098000C12CD12C0F2EF2EC8F2EF0E09F2EF02DEB
:100990000F2EF2EDEF2EF0E0FF2EF02D612C712CDA
:1009A0002BC1A62EB12CA114B10409F432C1C12C63
:1009B000D12C0F2EF2EC8F2EF0E09F2EF02D0F2E6B
:1009C000F2EDEF2EF0E0FF2EF02D612C712CD8C04F
:1009D000A62EB12CA114B10409F41BC1C12CD12C39
:1009E0000F2EF2EC8F2EF0E09F2EF02D0F2EF2ED59
:1009F000EF2EF0E0FF2EF02D612C712C84C0A62E7E
:100A0000B12CA114B10409F404C1C12CD12C0F2EB6
:100A1000F2EC8F2EF0E09F2EF02D0F2EF2EDEF2E48
:100A2000F0E0FF2EF02D612C712C30C0849190E00D
:100A3000809590958D939D933196AE15BF05B1F736
:100A4000209761F0862D972DEFE9FFE03197F1F7C0
:100A500000C0000001968C179D07B1F70E947B0231
:100A60000115110561F0862D972DEFE9FFE0319713
:100A7000F1F700C00000019680179107B1F7FFEF72
:100A8000CF1ADF0ACA14DB0408F0C3C0E091E20009
:100A9000F0E0EE0FFF1FEE0FFF1FEE0FFF1FEC5BEE
:100AA000FE4FD401C3CF849190E0809590958D93B3
:100AB0009D933196AE15BF05B1F7209761F0862D55
:100AC000972DEFE9FFE03197F1F700C000000196A4
:100AD0008C179D07B1F70E947B020115110561F08B
:100AE000862D972DEFE9FFE03197F1F700C0000068
:100AF000019680179107B1F7FFEFCF1ADF0ACA14EA
:100B0000DB0408F086C0E091E200F0E0EE0FFF1F8A
:100B1000EE0FFF1FEE0FFF1FE45FFE4FD401C3CFA8
:100B2000849190E0809590958D939D933196AE152C
:100B3000BF05B1F7209761F0862D972DEFE9FFE013
:100B40003197F1F700C0000001968C179D07B1F7AF
:100B50000E947B020115110561F0862D972DEFE9AA
:100B6000FFE03197F1F700C0000001968017910770
:100B7000B1F7FFEFCF1ADF0ACA14DB0408F049C04F
:100B8000E091E200F0E0EE0FFF1FEE0FFF1FEE0F0F
:100B9000FF1FEC52FF4FD401C3CF849190E08095AA
:100BA00090958D939D933196AE15BF05B1F7209723
:100BB00061F0862D972DEFE9FFE03197F1F700C046
:100BC000000001968C179D07B1F70E947B0201156A
:100BD000110561F0862D972DEFE9FFE03197F1F7D0
:100BE00000C00000019680179107B1F7FFEFCF1A00
:100BF000DF0ACA14DB0468F4E091E200F0E0EE0FD3
:100C0000FF1FEE0FFF1FEE0FFF1FE456FF4FD40133
:100C1000C4CFDF91CF911F910F91FF90EF90DF90A4
:100C2000CF90BF90AF909F908F907F906F900895DE
:100C3000859932C00E945A048093E2002FEF89E622
:100C400098E1215080409040E1F700C000001092F0
:100C5000C0001092BF00E091E200F0E0EE0FFF1F35
:100C6000EE0FFF1FEE0FFF1FEC5BFE4FA2ECB0E09C
:100C700022ED30E0849190E0809590958D939D9346
:100C80003196A217B307B1F728EC30E04CE251E0FF
:100C900065E081E00E949E04869932C00E945A0459
:100CA0008093E2002FEF89E698E121508040904048
:100CB000E1F700C000001092C0001092BF00E09168
:100CC000E200F0E0EE0FFF1FEE0FFF1FEE0FFF1F21
:100CD000E45FFE4FA2ECB0E022ED30E0849190E0C2
:100CE000809590958D939D933196A217B307B1F798
:100CF00028EC30E04CE251E065E082E00E949E0486
:100D0000839932C00E945A048093E2002FEF89E653
:100D100098E1215080409040E1F700C0000010921F
:100D2000C0001092BF00E091E200F0E0EE0FFF1F64
:100D3000EE0FFF1FEE0FFF1FEC52FF4FA2ECB0E0D3
:100D400022ED30E0849190E0809590958D939D9375
:100D50003196A217B307B1F728EC30E04CE251E02E
:100D600065E083E00E949E04849932C00E945A0488
:100D70008093E2002FEF89E698E121508040904077
:100D8000E1F700C000001092C0001092BF00E09197
:100D9000E200F0E0EE0FFF1FEE0FFF1FEE0FFF1F50
:100DA000E456FF4FA2ECB0E022ED30E0849190E0F9
:100DB000809590958D939D933196A217B307B1F7C7
:100DC00028EC30E04CE251E065E084E00E949E04B3
:100DD0000895CF93DF93CDB7DEB7AF970FB6F894F2
:100DE000DEBF0FBECDBF8AB38FEF8ABB87B38F6ED6
:100DF00087BB84B38C6F84BB83B78B6483BF89B795
:100E0000826089BF8EB585608EBD8EB588608EBDCF
:100E10008DE490E09BBD8ABD89B7806189BF8BB7A7
:100E200080648BBFAA9A78948BB78F7B8BBF8FE23D
:100E3000EFE8F0E0DE01119601900D928A95E1F75E
:100E400000E010E0CE0101967C010FC0B701C8019F
:100E50000E94FD029FEF27EE83E0915020408040EA
:100E6000E1F700C000000F5F1F4FF7010190002065
:100E7000E9F73197CF018E199F09880F991F880FC5
:100E8000991F880F991F0817190700F38BB7806403
:100E90008BBF8BB78F7B8BBF0E94D0020E948502D5
:100EA0000E94CA038091C1008111F3CF0E941806ED
:100EB000F0CF97FB072E16F4009407D077FD09D0EA
:100EC0000E94730707FC05D03EF4909581959F4FD3
:100ED0000895709561957F4F0895EE0FFF1F05905F
:100EE000F491E02D0994AA1BBB1B51E107C0AA1F76
:100EF000BB1FA617B70710F0A61BB70B881F991FBB
:100F00005A95A9F780959095BC01CD0108958F92CF
:100F10009F92AF92BF92CF92DF92EF92FF92CF93C8
:100F2000DF93EC01688179818A819B81611571056C
:100F30008105910521F464E279ED8BE597E02DE1DF
:100F400033EF41E050E00E94E50749015A019B015F
:100F5000AC01A7EAB1E40E9404086B017C01ACEE8D
:100F6000B4EFA50194010E941208C60ED71EE81E18
:100F7000F91EF7FE06C081E0C81AD108E10880E832
:100F8000F80AC882D982EA82FB82C6019F77DF9184
:100F9000CF91FF90EF90DF90CF90BF90AF909F9058
:100FA0008F9008950E948707089580E690E00E9440
:100FB00087070895A0E0B0E08093600090936100FF
:100FC000A0936200B09363000895052E97FB1EF472
:100FD00000940E94FC0757FD07D00E94170807FCE9
:100FE00003D04EF40C94FC07509540953095219514
:100FF0003F4F4F4F5F4F0895909580957095619545
:101000007F4F8F4F9F4F08950E943908A59F900DE5
:10101000B49F900DA49F800D911D11240895B7FFDA
:101020000C9404080E940408821B930B0895A1E20B
:101030001A2EAA1BBB1BFD010DC0AA1FBB1FEE1F52
:10104000FF1FA217B307E407F50720F0A21BB30B9D
:10105000E40BF50B661F771F881F991F1A9469F719
:1010600060957095809590959B01AC01BD01CF0175
:101070000895A29FB001B39FC001A39F700D811D71
:101080001124911DB29F700D811D1124911D089591
:04109000F894FFCF02
:1010940001000000205374617274204D617869204E
:1010A400446963652000204D617869204469636563
:1010B4002067656874207363686C6166656E0020E0
:1010C4004865736368204175746F6D6174696F6EF0
:1010D40020506172746E6572206D6164652062795E
:0E10E40020486D202F20576C202F20477A00C7
:00000001FF
